:100000006F40105D1300000013000000130000009B
:100010001300000013000000130000001300000094
:100020001300000013000000130000001300000084
:08003000130000007300100032
:100038000000000000000000A8020000AC02000060
:1000480000000000164D0000000000000000000045
:10005800184D00001A4D00000000000000000000CC
:100068001C4D0000000000001E4D000000000000B4
:10007800204D0000224D0000244D0000264D0000B8
:10008800284D00002A4D00000C0400002004000048
:10009800360400005E040000A8040000364D00008D
:1000A800384D00003A4D00003C4D00003E4D000028
:1000B800404D0000424D0000444D0000464D0000F8
:1000C800484D00004A4D00004C4D0000EA04000075
:1000D800504D0000FA050000544D0000564D000038
:1000E800A2060000BC060000E20600005E4D00000B
:1000F800604D0000624D0000644D0000664D000038
:10010800684D0000B0020000DA020000040300009D
:1001180078050000724D0000744D0000764D000017
:100128006E0700007A4D00007C4D00007E4D0000F7
:10013800804D0000824D000008070000864D000039
:100148002E030000580300002E0700004807000097
:10015800904D0000924D0000944D0000964D000017
:10016800984D00009A4D00009C4D00009E4D0000E7
:10017800A04D0000A24D0000A44D0000E45A00006C
:10018800A84D0000AA4D0000EC0300007A0300000F
:10019800A4030000CE030000B44D0000FA070000DD
:1001A800B84D0000BA4D0000BC4D0000FE0700002D
:1001B800C04D0000C24D0000C44D0000C64D0000F7
:1001C800C84D0000CA4D0000CC4D0000CE4D0000C7
:1001D8000000000000000000000000000000000017
:1001E8000000000000000000000000000000000007
:0801F8000000000000000000FF
:100200003D432A876373C3029377F700BDEFADE5E3
:10021000937606FF3D8ABA960CC34CC30CC74CC7F5
:100220004107E36BD7FE11E28280B306C3408A0622
:100230009702000096966780A6002307B700A306E2
:10024000B7002306B700A305B7002305B700A30432
:10025000B7002304B700A303B7002303B700A3022A
:10026000B7002302B700A301B7002301B700A30022
:10027000B7002300B700828093F5F50F93968500B1
:10028000D58D93960501D58D61B79396270097027A
:10029000000096968682E78086FA9680C1171D8FA9
:1002A0003E96E374C3F8A5B7730020307300203086
:1002B000411122C637440140930550521305048072
:1002C000EF50E07419C59305505213050480EF50A8
:1002D00040783244410173002030411122C6374436
:1002E00000409305505213050440EF50407219C569
:1002F0009305505213050440EF50A075324441015C
:1003000073002030411122C63754004093055052EB
:1003100013050480EF50A06F19C5930550521305C3
:100320000480EF50007332444101730020304111CA
:1003300022C63754004093055052130504C0EF50B5
:10034000006D19C593055052130504C0EF5060703D
:10035000324441017300203093055052375500401C
:10036000EF50E06A09C9EF10200F9305505237553E
:100370000040EF50006E73002030411122C6372438
:1003800000409305505213050480EF50406819C592
:100390009305505213050480EF50A06B3244410185
:1003A00073002030411122C637240040930550527B
:1003B000130504C0EF50A06519C5930550521305ED
:1003C00004C0EF50006932444101730020309305AE
:1003D000505237250040EF50806319C593055052A5
:1003E00037250040EF50E06673002030B707055016
:1003F00003C70701118B09CB03C707011377B70F99
:100400002388E700EF10400B730020300545EF40D4
:10041000103985476314F500EF40503A73002030DF
:100420000945EF40D03785476315F5000945EF4092
:10043000F038730020301145EF4070368547631E59
:10044000F50083A781861305800C850723A4F18618
:10045000EF10C07F1145EF4070367300203041111E
:10046000214522C6EF40B0338547631BF5022A843D
:100470001305800CEF10807D2145EF403034B767C5
:10048000002037A60000238D07B613068628B7671D
:100490000020D1451305800CA38D87B6EF00702E88
:1004A00032444101730020304111414522C6EF40E2
:1004B000102F85476317F5022A844145EF4010301D
:1004C000B767002037A60000238D87B613060629DC
:1004D000B7670020D1451305800CA38D87B6EF00C8
:1004E000502A324441017300203013050002EF40CE
:1004F000102B85476314F50213050002EF40102C02
:10050000370700208327871889461305800C850745
:10051000B3E7D7022324F718EF1040731305000444
:10052000EF40F02785476316F50013050004EF4000
:10053000F02813050008EF40902685476316F50064
:1005400013050008EF40902713050010EF403025F9
:1005500085476316F50013050010EF40302613059C
:100560000020EF40D02385476316F50013050020D7
:10057000EF40D0247300203041111305004022C603
:10058000EF40F02185476316F50013050040EF406A
:10059000F022056413050480EF4070208547631640
:1005A000F50013050480EF4070210565EF40301F12
:1005B00085476315F5000565EF4050200965EF405C
:1005C000101E85476315F5000965EF40301F116562
:1005D000EF40F01C85476315F5001165EF40101ED4
:1005E0002165EF40D01B85476315F5002165EF407D
:1005F000F01C324441017300203041114EC0B73924
:1006000001408545138509C022C626C44AC2EF5061
:10061000402949C183A7C193850723AEF192EF100A
:100620006050B767002023AAA7DC9307401F63FC34
:10063000A70403A9C18785476317F904B76700209A
:100640008545138509C023A807DCEF50402783A701
:10065000C18763952701894723AEF18603A6C1931D
:100660008D479D463346F602930500051305800C21
:10067000EF005015373501408145130505C0EF5097
:10068000201223A20186373501408545130505C098
:10069000EF50E0223244A2441249824941017300E2
:1006A0002030854537050040EF50A01F11C5854516
:1006B00037050040EF50A02073002030411122C6C2
:1006C00037040040854513050440EF50801D11C5D7
:1006D000854513050440EF50801E324441017300EC
:1006E0002030411122C6371400408545130504808F
:1006F000EF50201B11C5854513050480EF50201CC9
:100700003244410173002030411122C637140040A9
:100710008545130504C0EF50C01811C58545130564
:1007200004C0EF50C01932444101730020308545A8
:1007300037150040EF50E01611C5854537150040CC
:10074000EF50E01773002030411122C637140040EB
:10075000854513050440EF50C01411C585451305A8
:100760000440EF50C015324441017300203037354A
:100770000140411185451305054022C626C4EF50AE
:10078000401225C583A7C1870947FD176368F70491
:1007900083A7818513848185858BA9EFB7670020A6
:1007A00003C7A7B7BE8419E3EF30B04D03C7A4B7A2
:1007B00085476314F700EF30504E1C4019478507FA
:1007C0001CC0639DE7003735014081451305054096
:1007D000EF40107DEF3030492320040037350140D1
:1007E000854513050540EF50800D3244A244410178
:1007F00073002030EF303047C9B773002030854593
:1008000037550140EF50E00911C585453755014086
:10081000EF50E00A73002030B7670020238407CC34
:100820003971A38A018AB767002006DE238F07B6D5
:1008300022DC26DA4AD84ED652D456D25AD05ECED0
:1008400062CC66CAEF305024EF408001EF003009DF
:10085000EF10A01E37A6000013068629814501452A
:10086000EF00207237A600001306062AD145014585
:10087000EF002071F16593061006B767002013069C
:10088000000693850520154523A807DCEF20C061ED
:10089000014685451545EF20A02DEF0010441305B6
:1008A0004006EF10A03AB7670020238407B8B76767
:1008B0000020238E07B6B7670020A38607B64146FF
:1008C0009305200411453764002023AE0192A30D47
:1008D00004B6EF1020684146930530042145EF101F
:1008E00060674146930540044145EF10A0664146CC
:1008F0009305500413050002EF10C065370900206E
:100900008347B4B7638707181305C012EF1000348C
:10091000EF3070351305C012EF1040330145EF3052
:10092000B02A1305803EEF1060320D45EF30D0291C
:100930001305803EEF108031EF30F032A30D04B686
:100940000964930584B50145F52A93054496054548
:10095000D52A1305C01237640020EF10202FB76B83
:100960000020B76C0020B70900201304C4BC938496
:1009700001869C408DEBEF10E01A23AAABDC9307B5
:10098000C01263E2A7029C4099EF83AAC187854702
:10099000639BFA00373501408545130505C0EF40DC
:1009A000306023A0540183C7418899C71385CCDDEB
:1009B00023820188EF30607C1385C934EF30903595
:1009C000814813088007130780079307C00B93061D
:1009D000C00B1386C93481450145EF00C06403A6EE
:1009E0008189994681451305800CEF00A05D8347FE
:1009F000A4051306E00599461D8E93058002130594
:100A0000800CC923EF40C00083A681899947639772
:100A1000F60A814501453D22814505452522B7A5B8
:100A200000009385852A15450564EF200012130503
:100A300084BBEF10A0219305843801452122930542
:100A400044190545012213050019EF1020209305D4
:100A500044190545C52881450145ED201305A00F22
:100A6000EF10C01E1305A00FEF10401E9305843831
:100A70000145C928930544190545E9201305401F80
:100A8000EF10C01C814501457528814505455D284D
:100A900001A013054006EF10601B03A6818689465E
:100AA0009305C0031305800C312B03268918994642
:100AB000930580071305800C312399B5B767002093
:100AC00003A587BC36C6EF80801DB24637B600202E
:100AD000B7B500201306C66193850560EF30B07D81
:100AE00079B5411106C622C415E537C40200A146F6
:100AF0000146930504F213053020EF101031A14692
:100B00000146930504F2130520202244B24041011E
:100B10006F10B02F85476313F50237C4020081467A
:100B20000146930504F213051010EF10102E8146B4
:100B30000146930504F213050010C1BFB2402244E0
:100B40004101828001114AC84EC6AA8903A5818944
:100B500026CA06CE22CC994783A6C1879384C18733
:100B60006304F50285476381F60283A78186130734
:100B7000A00F3387E7026359B700130760F0B3870C
:100B8000E702BE95C205C1818967938787642E8479
:100B900063F3B7003E8442048D4741801387418749
:100BA0006314F50085471CC31C4399CB4DE98507A9
:100BB0001CC31843CD4763D5E700054723AEE18446
:100BC000938781870D4698436310C50A050798C32C
:100BD0008D476396F60A938701889843050798C363
:100BE000984085476315F70283A7C186850723A62A
:100BF000F1869306F00463DCF60083A6418681EA61
:100C000023A2E186938741809843050798C303A7F1
:100C1000818989476315F70883C7518B8546F91782
:100C200093F7F70F63FDF606B707002083A7871831
:100C3000BDC705649305441913053020EF10C05259
:100C4000130510109305042CEF10005279456244EF
:100C5000F240D2444249B24905616F00307F0546F7
:100C6000E359F6F4FD17A9B7130640066345E600FD
:100C700023A00700B1BF054723A8E18691BF954790
:100C8000E310F5F693F7D6FFA1FF3735014085064F
:100C900085451305054094C0EF40903091B76399A6
:100CA0000902A28513053020EF10004C9305400681
:100CB0001305800C99462286312681451305202094
:100CC0006244F240D2444249B24905616F10C049C2
:100CD00085476392F90691476316F704814513052A
:100CE0003020EF106048814513051010EF10C04709
:100CF000814513053020EF10204705649305449C7F
:100D000013052020EF1040469305449C1305101056
:100D1000EF108045130500108145EF10E0441305E6
:100D2000C02B35B7A28513051010EF10E0438145A5
:100D30001305001071B7F2406244D2444249B249EF
:100D4000056182804111AD6722C403A4C79526C204
:100D50004AC006C6C14404C844C813090008232A6F
:100D60002401AA850545EF10304A2328240104C830
:100D700044C8B2402244924402494101828083A780
:100D8000C180011122CC26CA4AC84EC606CEAA8905
:100D9000AE8432893684A1EF1305A00265379385AE
:100DA0004903C205C1810545EF10D04793054903AA
:100DB000C205C1810545EF10F0461305B002593751
:100DC00093858402C205C1810545EF10B0459305A6
:100DD0008402C2050545C181EF10D0446244F2404F
:100DE000D2444249B2491305C0020561A1BF05477B
:100DF000639FE7001305A002B13793855903C2052D
:100E0000C1810545EF1010429305590355B7930969
:100E1000850213098602C2094209094793D90901CB
:100E2000135909011305A0026398E702213FCE85FB
:100E30000545EF10303FCA850545EF10B03E13055C
:100E4000B002093793855403C205C1810545EF10EF
:100E5000703D93055403B5BFF535CE850545EF10BC
:100E6000703CCA850545EF10F03B1305B002D93D33
:100E700093854403C205C1810545EF10B03A93053F
:100E8000440381BF03C6218183C63181411122C43D
:100E90003304D602FD167D16C2064206C182418287
:100EA0008145014526C206C6D93D11E4B24022441F
:100EB00092444101828083D5818005457D14EF10E5
:100EC0007036E5B723A6A1808546138721819387D5
:100ED000318163EAA600930670F82300D7004157DA
:100EE0002380E7008280C1562300D700130770F8E3
:100EF000C5BF79714ECEA967930975001206938715
:100F00000736C20922D44AD056CA5AC85EC662C43D
:100F100066C206D626D252CCAA8AAE8B3304F6001D
:100F2000014993D90901414BB3862B01C206C18205
:100F30004E86B6855685A135034A04E0A1449377D1
:100F40001A008DCF83D50181FD14054593F4F40F6C
:100F5000EF10502D135A1A00FDF005090504E31592
:100F600069FDB250225492540259F249624AD24A5F
:100F7000424BB24B224C924C4561828083D581809A
:100F8000E1B7011122CC26CA4AC84EC606CE2A892C
:100F9000AE89B2840144B38784000386070001EA66
:100FA000F2406244D2444249B2490561828013153D
:100FB00034004A9542050504CE8541814204153F1F
:100FC0004180D1BF797122D426D24AD0AA842E89F9
:100FD00032849305000213861600480836C606D6EA
:100FE00002CA02CC02CEEFF0AFA1B246A54763F928
:100FF000D702A2854808EF0020675008CA852685D9
:101000004937B25022549254025945618280B387C5
:10101000E702FD1693F6F60FFDFA3364F402D1BF32
:1010200085472947D5BF397162CC6AC8368C328D65
:101030009306F8FF1386F7FFAE962A96C20642067D
:1010400056D2C1824182C16A26DA4AD84ED652D4DB
:1010500066CA6EC606DE22DC5AD05ECEBA8D3E8AE5
:101060004289C68C8149213B8144FD1A63E12403F6
:10107000F2506254D2544259B259225A925A025BE7
:10108000F24B624CD24C424DB24D2161828033D43E
:101090002903814B014B330484036A9463654B013C
:1010A0008504EE99E1B7B3D74B03A29783C7070036
:1010B00063920C02C207C18393D5370089831397CB
:1010C000B5009607D98FDD8D0545EF10B015050BDE
:1010D000E29BE9B7D685E3E9FCFE8145F5B703A8B5
:1010E000018441111307F00F81479306F00F130697
:1010F000200293050002054506C622C426C24AC046
:10110000EF107000C1460146854513057006EF00DB
:10111000506DC1460146854513057002EF00706CA5
:10112000C1460146854513054006EF00906B854595
:10113000C146054613050006EF00B06A1384C1805E
:10114000084013090008BD3BAD6783A4479513050C
:10115000800C23AA2401EF00702F1305400623A85A
:101160002401EF00B02E13056003E93E130540068D
:10117000EF00D02D1C40814589CF05479305000C19
:101180006389E7000947930500076384E700930537
:10119000000A0545EF1050071305A0036536954575
:1011A0000545EF1070061305200BEFF0BFB9B145F0
:1011B0000545EF107005B1450545EF10F004814578
:1011C0000545EF107004930530030545EF10D0037B
:1011D000930530030545EF1030031305700BEFF056
:1011E0007FB6930550030545EF1010021305B00BB1
:1011F000EFF05FB5930570030545EF10F0001305A0
:10120000000CEFF03FB49305C0020545EF10C07F1E
:101210001305200CEFF01FB385450545EF10C07E88
:101220001305300CEFF01FB2C9450545EF10C07D26
:101230001305400CEFF01FB1930500020545EF10B8
:10124000A07C1305600CEFF0FFAFBD450545EF1026
:10125000A07B1305000DEFF0FFAE9305400A054596
:10126000EF10807A9305100A0545EF10E079130519
:10127000000EEFF03FAD9305000D0545EF10C0786F
:1012800091450545EF104078B5450545EF10C0770D
:10129000C5450545EF104077CD450545EF10C076B3
:1012A0009305B0020545EF1020769305F003054540
:1012B000EF108075930540050545EF10E074930528
:1012C000C0040545EF104074E1450545EF10C073BB
:1012D000B5450545EF104073AD450545EF10C072AB
:1012E000FD450545EF104072930530020545EF10AE
:1012F000A0711305100EEFF0FFA49305000D054536
:10130000EF10807091450545EF100070B14505451F
:10131000EF10806FC5450545EF10006FCD450545C1
:10132000EF10806E9305C0020545EF10E06D930548
:10133000F0030545EF10406D930540040545EF109F
:10134000A06C930510050545EF10006C9305F002A5
:101350000545EF10606BFD450545EF10E06AFD4562
:101360000545EF10606A930500020545EF10C0695E
:10137000930530020545EF10206913051002EFF0C8
:101380007F9C4545EFF01F9C13058007EF00100C74
:1013900013059002EFF01F9B2244B2409244024991
:1013A00041016FF03FAE797126D24ECE52CCB704D8
:1013B00000207D7A22D456CA5AC806D64AD09384D1
:1013C00004000144130A5A1A7D5B9389818883D7EC
:1013D000040011466C0013978700A183D98F114533
:1013E000231641012317F10013090008EF10E072E2
:1013F0009387C18883C707001387C18893F7F70FC6
:10140000A1C36313090039C483C71900230007006F
:1014100003C72900A2070504D98F42042391F400D1
:101420004180A5479104E314F4FA0145B2502254D7
:1014300092540259F249624AD24A424B4561828033
:101440007D19420913590941E30F69FB0545EF0076
:10145000E07F79BF0545D9BF411122C483C7B18858
:1014600026C293858188BE95114506C6EF10807D02
:10147000938481889387B18811C503C70700050746
:101480002380E70083C607000547639FE60083C605
:1014900004001307500A6384E60023800700B2406B
:1014A00022449244410182800D46E39AC6FE238085
:1014B00007002386E188E5B7B7B7002003A7C75F19
:1014C000B7070550854698C72382D18803C7070010
:1014D000136717002380E7008280896539719306BE
:1014E00010051306000593850558114506DE22DC1C
:1014F00026DA4AD84ED652D4EF10101B0146854545
:101500001145EF10E066EF0010449387C1882380F7
:101510000700513D05C1B7A6000029669386862CB9
:101520001306462B9305B01237A500001305C52CF2
:10153000EF70B00A1384C188B704002023000400B0
:10154000938444022300040013898402930950FA0F
:1015500083D7040011466C08A30EF10083D7240042
:101560001145230E310113978700A183D98F231FC3
:10157000F100EF10805A09459104EF00206DE399C6
:1015800024FD930410088347040093F7F70F89E7BD
:10159000FD14C204C18085EC2300040093040008FC
:1015A00013898188130AF00FFD59834719000347F7
:1015B0002900F98F6391470385E8B7A600002966E3
:1015C0009386862C1306462B93052013B1BF054541
:1015D000EF00C0674DBFFD14C204C184E38F34FD2A
:1015E0000545EF00A066D1B7230004006D3B19C983
:1015F000B7A6000029669386862C1306462B930512
:1016000090131DB7EF00503491473EC495473EC23A
:1016100099473EC093089002130880029307600226
:101620001307B0049306900413068004A9452545CA
:10163000EF00207B3765002019661307C5DDB7B7BB
:1016400000201305C5DD854613060682814523AEBD
:10165000E75EEF005005F2506254D2544259B2593D
:10166000225A01452161828063DB05009307D00285
:101670002300F500050541118147A9463DA0E5FD80
:10168000930700032300F5008280180813881700D1
:10169000BA9733E7D502B3C5D5021356F741318F58
:1016A000118F2388E7FE9377F80FE5F18A86B697C6
:1016B0006394F6004101828003C7F7FF0505FD171B
:1016C00013070703A30FE5FEE5B7797122D44AD0CB
:1016D0004ECE52CC56CA06D626D2834715003704C2
:1016E000004081452306F100834705001309C1002E
:1016F000130AF100A306F1008347250013050440F7
:10170000130404402307F100EF40A0178965938A72
:10171000C55193894513A14483470900FD14CE8523
:10172000B3D79740858B91E3D68513051020EF0042
:10173000B023054691452285EF402012854522853C
:10174000EF40801465DD014691452285EF40E010B1
:1017500085452285EF40001481452285EF406012C7
:10176000C5FC0509E3192AFBB250225492540259D0
:10177000F249624AD24A45618280B7C5020001112E
:1017800081460146938505F21305102006CE2316E7
:10179000010023070100EF0050673705004089452D
:1017A00013050540EF40C0096800053713054006E2
:1017B00095216800193FF2400561828041118545FD
:1017C0001305B00606C6EF00900F85451305C00649
:1017D000EF00F00E01459D2981451305C006EF007D
:1017E000100E0145A521B24081451305B006410107
:1017F0006F00F00C411181451305B00606C6EF00DD
:10180000100C81451305C006EF00700B01453D2902
:1018100085451305B006EF00900A0145052913051B
:10182000C0068545EF00B009B2400145410139A924
:10183000411122C426C206C6AA8425447D1413740D
:10184000F40F0DEC81451305B006EF00500701457C
:10185000F52E85451305B006EF0070060145FD26FF
:101860001305C006EF00100839C52244B240924467
:1018700085451305B00641016F00700493978401FC
:10188000E187854563C3070081451305C006EF0066
:1018900010030145652E85451305B006EF003002A3
:1018A00001456D26860481451305B00693F4F40FB7
:1018B000EF00F00061B71305B0068145EF0030007E
:1018C0002244B24092440145410149A6411106C655
:1018D00022C426C22E84B2844AC02A89C535130583
:1018E0002005B9370145A9371375F90F9137A2942F
:1018F000639884002244B240924402494101DDBD14
:1019000005040345F4FF2D37E5B7411181454AC071
:101910002A891305B00606C622C426C2EF00207A23
:1019200001452D2685451305C006EF004079A144E9
:1019300001440145212E81451305B006EF002078B2
:101940000145292685451305B006EF00407701457E
:10195000F52C06041305C0061374F40FEF0080780D
:1019600001C505041374F40FFD1493F4F40FF1F0A2
:1019700081451305B006EF0080740145C12C8145F7
:101980001305B006EF00A0730145C9248145631318
:10199000090085451305C006EF00607285451305F3
:1019A000B006EF00C0710145552481451305B0060E
:1019B000EF00E0700145592C2285B2402244924448
:1019C000024941018280011106CE22CC26CA2A8416
:1019D0004AC852C432892E8A4EC6EFF03FDE130544
:1019E0002005EFF0FFE40145EFF09FE41375F40FDD
:1019F000EFF01FE4EFF09FDC130530059304F9FFCF
:101A0000EFF01FE30144B3349000636B24016244A0
:101A1000F240D2444249B249224A05616FF09FDD4B
:101A2000B3098A000545639384000145F93D050427
:101A30002380A9001374F40FC9BF79719306403154
:101A4000054685451305B00606D626D24ECE52CCA5
:101A500056CA22D44AD071239306403105468545A3
:101A60001305C0069969617AAD2BAD44B70A002011
:101A700093890950130A0A70130670089385CA04E3
:101A80000545EFF0BFE409466C001305E005231699
:101A90003101EFF0BFE309466C0013051006231671
:101AA0004101EFF0BFE205466C0013050003213F42
:101AB00005466C00130510030344C1002937054592
:101AC00071220349C1001180FD141344F4FF93F403
:101AD000F40F05881379190081E837A50000130574
:101AE0000533EF70B05701A0130540068522E315BA
:101AF00024F9930710026C000546130560082306BD
:101B0000F100EFF0BFDC37A5000013058534EF705E
:101B1000F054B250225492540259F249624AD24AC5
:101B2000456182800111854705466C0013056008F8
:101B30002306F10006CEEFF07FD913059008054685
:101B40009305B100EFF03FE80347B1009307900819
:101B5000130580576318F7021305600909466C00E6
:101B600023160100EFF03FE60345C1008347D10093
:101B700022053E95130585FD9307805763F4A70062
:101B800013058057F24005618280B7170240DC439D
:101B900037177A0013070720C983BD8BB387E70285
:101BA0003727F40013070740F16593061002130668
:101BB0000002938505200945BA9723A8F1886F1084
:101BC000A02E011126CAB754004022CC4AC84EC6E6
:101BD00006CEAE893289014493840480634A24018D
:101BE000F24062444A85D2444249B249056182804A
:101BF000930500042685EF30D0607DD9B387890036
:101C00008385070026850504C205C181EF30D05EBB
:101C1000F1B7828083A7018437177A001307072062
:101C2000B3D7E702814601473385A702B7F700E043
:101C300023A0070094C7D8C7054798C3B7F600E0AC
:101C40009846DC4699E3E37DE5FE828083A7018424
:101C50000967130707F4B3D7E702814601473385C5
:101C6000A702B7F700E023A0070094C7D8C705472D
:101C700098C3B7F600E09846DC4699E3E37DE5FEBD
:101C8000828009E5814601468145A1AE0547E30B07
:101C9000E5FE0947E308E5FE0D47E305E5FE1147CC
:101CA000E302E5FE1547E30FE5FC1947E30CE5FC0D
:101CB0001D47E309E5FC21476318E500814601461D
:101CC000814513050002D1B725476318E500814619
:101CD00001468145130510024DBF29476318E500F1
:101CE0008146014681451305000445B72D47631819
:101CF000E5008146014681451305100479B7314757
:101D00006318E50081460146814513052004B5BFEF
:101D100035476318E50081460146814513053004C7
:101D2000ADB739476318E500814601468145130583
:101D30004004A1BF3D476318E50081460146814547
:101D40001305500499B78280797122D485452A847D
:101D50001305002006D626D2EF30205E22851537E7
:101D600003A70189B7C70105938707D0316563E3EE
:101D7000E700216537240140EF3040481305044057
:101D8000EF30200EB7070E003EC68A858547130543
:101D90000440230AF10002C002C202C402C8EF30AC
:101DA000A010854513050440EF308015130504404D
:101DB000EF300016930404402685EF3000166DFDC9
:101DC0001305044037240140EF30A01513040440EC
:101DD0002285EF30A0156DFDB2502254925445611A
:101DE000828079714ECE52CC56CA328AAE8AB6897A
:101DF000014693068004814506D622D426D24AD0D5
:101E000046C042C23EC43AC683440103034941036B
:101E100003448103F92256859306800401468145D7
:101E2000C922528593068004014681455D2A4E856C
:101E300093068004014681456D2232479306800453
:101E400001463A858145712AA247930680040146DE
:101E50003E858145792212489306800401464285D9
:101E6000814541228248930680040146468581458A
:101E70008D2A4A8593068004014681459D22268548
:101E80009306800401468145A92A22852254B25036
:101E900092540259F249624AD24A9306800401469A
:101EA000814545613DAA011122CC26CA2E84AA840F
:101EB0008545096506CE32C636C4EF302046B707E1
:101EC000055003C70700130560058D451377F70C10
:101ED0002380E70003C70700136727042380E70078
:101EE00003C717001377970FA380E700A246324677
:101EF0002392D7002393C70084C7C0C703C7170026
:101F00001377F703A380E70003C717001377F70FD2
:101F1000A380E70003C7170013670701A380E7004A
:101F200003C72700136747002381E70003C7170093
:101F300013671700A380E70003C7070013671700A4
:101F40002380E700DD2A6244F240D2441305600595
:101F5000056155AA011122CC05452E84854506CE82
:101F600026CA4AC802C0328902C202C402C6EF3081
:101F7000C03C930680040546814522859D209374CC
:101F8000F40113555400A6851375F50FEF30C018F2
:101F90008547339797000A853AC002C24AC43EC6B5
:101FA000EF20507959459DC49377E4015D459DC369
:101FB0008947614563F097027188654501CC914777
:101FC000694563F99700A5471305700263F497000C
:101FD000130580030D2AF2406244D2444249056150
:101FE00082809307F00F630BF50C797122D41354A0
:101FF000550026D24AD04ECE52CC06D61D889374B8
:10200000F5003689328AAE8935E085451145EF30D5
:10201000C0328547B3949700C204C1802312910057
:102020006399F90093170901C183A18391E38D4757
:102030003EC4AD67938707950A043E940040137928
:10204000F90F4C0022854AC6EF20F0778547639749
:10205000F9005286A6852285EF300003B250225443
:1020600092540259F249624A45618280854763155C
:10207000F4008545214561BF89476315F400854516
:10208000414571B78D476316F4008545130500027D
:10209000BDBF91476316F40085451305000485BF55
:1020A00095476316F4008545130500088DB79947D9
:1020B000E311F4F685451305001091BF8280935714
:1020C000550013972700AD6793870795BA979843F4
:1020D0009377F50005453315F50099C108CB82804B
:1020E00048CB8280135735009376C7012D671307BD
:1020F000079536971C43984785473395A700798DF8
:102100003335A00082809357550005479387070415
:102110003315A7008A0737E700E0BA9788C38280A3
:10212000935755000547938707063315A7008A077D
:1021300037E700E0BA9788C38280B7E700E03E95B2
:102140002300B54082808280828001112304A10097
:10215000280006CEA304B1002305C10036C6EF2037
:10216000707EF24005618280935785002D671307CA
:1021700007978A07BA9798430D890A058357C702BC
:102180003A95B385F502896793870771B3D5F50250
:10219000C205C1814CD9828001E993068031014694
:1021A000854521456FF0FFE385476318F5009306E9
:1021B0008031014685452545F5B789476318F50007
:1021C00093068031014685452945E9BF8D4763184F
:1021D000F50093068031014685452D45E1B7C1479D
:1021E0006319F50093068031014685451305900873
:1021F00055BFC5476319F5009306803101468545F3
:102200001305B00845B7C9476319F5009306803137
:10221000014685451305D00871B7CD476319F50010
:1022200093068031014685451305E008A5BF930755
:1022300000106318F500930680310146854501457D
:1022400095B7930710106318F50093068031014687
:102250008545054581BF930720106318F500930657
:10226000803101468545094535BF93073010631815
:10227000F50093068031014685450D4525B7930746
:1022800000116318F50093068031014685453D45F0
:1022900011BF930710116319F500930680310146B1
:1022A000854513053002FDBD930720116319F50024
:1022B00093068031014685451305A002E5B59307D5
:1022C00030116319F50093068031014685451305E9
:1022D000B002C9BD930700206318F5009306803152
:1022E0000146854519457DBD930710206318F5000B
:1022F00093068031014685451D456DB59307202025
:102300006319F500930680310146854513050002E7
:1023100051BD930730206319F500930680310146C3
:10232000854513051002BDBD930700216319F50013
:10233000930680310146854513056004A5B59307D2
:1023400010216319F5009306803101468545130578
:10235000700489BD930720216319F500930680312D
:10236000014685451305800435BD93073021631967
:10237000F5009306803101468545130590041DB58F
:10238000930700226319F5009306803101468545C5
:102390001305400201BD930710226319F50093064F
:1023A00080310146854513055002EDBB930700308F
:1023B0006319F500930680310146854513056002D7
:1023C000D5B3930710306319F500930680310146A9
:1023D000854513057002F9B3930720306319F500A2
:1023E00093068031014685451305800265BB93073E
:1023F00030306319F5009306803101468545130599
:1024000090024DB3930700316319F50093068031B4
:10241000014685451305C00671B393071031631952
:10242000F50093068031014685451305D0069DBB16
:10243000930720316319F5009306803101468545E5
:102440001305E00685B3930730316319F500930651
:102450008031014685451305F006A9B39307004076
:10246000E30BF5DC93071040E301F5DE9307204012
:10247000E307F5DE93073040E30DF5DE93070070C8
:10248000E308F5EA93071070E30FF5EA930720706D
:10249000E306F5EC93073070E30DF5EC930700715C
:1024A000E30AF5F093071071E301F5F29307207149
:1024B000E308F5F2930730716319F5009306803154
:1024C000014685451305D004F1B993070580E388DB
:1024D00007D8856713871780E30DE5D81387278012
:1024E0006318E500930680310146854511455DB9C5
:1024F000938737806319F50093068031014685453F
:102500001305400445B18567138707816319E5000A
:1025100093068031014685451305900661B1138706
:1025200017816319E500930680310146854513053F
:10253000B0068DB913872781E305E5EE1387378150
:10254000E307E5F013870790E30CE5E8138717909E
:10255000E303E5EA138727906319E50093068031CA
:10256000014685451305300435B913873790631943
:10257000E50093068031014685451305B0041DB181
:10258000138707916319E50093068031014685455D
:102590001305100601B9938717916319F500930687
:1025A00080310146854513053006EDBE85671387EA
:1025B00027916319E500930680310146854513058F
:1025C0005006CDB6138737916319E5009306803125
:1025D0000146854513057006F1B613870792E30E91
:1025E000E5CA13871792E301E5DA13872792E30818
:1025F000E5DA938737926319F50093068031014637
:1026000085451305F00479BE8280397106DE22DC2F
:1026100026DA2A844AD84ED62EC632C43689EFF03E
:10262000BFB7B24583A7018422469359840033D7AC
:10263000B7024E85418393061700B386B602B3D71F
:10264000D70293940701C180B384C40209661306BC
:102650000671FD1793950701C181B3D4C4023A8670
:10266000DD2E85450545EF20504D93574400054725
:10267000C204C1806394E70637051600854513053B
:10268000050CEF201021C1672D679387070613956E
:102690002900130707973EC83A9593773400231B08
:1026A0009100231C0100231E01000041E9E70C08F2
:1026B0002285EF20B06185452285EF302010CA8544
:1026C0002285EF30601222858545EF30600DF25093
:1026D0006254D2544259B25921618280454763986D
:1026E000E7003705180085451305053059BF130766
:1026F00010026398E70037151A008545130505C0D9
:1027000049B7130720026398E70037151A0085457B
:1027100013050580BDB7130710036395E7008545D2
:10272000056585B7130710076399E7003707014070
:102730005C4F93E747005CCFB9B713071008639865
:10274000E700370701405C4F93E70701EDB7130738
:1027500010096398E700370701405C4F93E70704CF
:10276000D9BF13072009E390E7F2370701405C4F18
:1027700093E70702C9B70547639FE7000C08228566
:10278000EF20D05E22858545EF304003CA85228543
:10279000EF30A0060DBF09470C082285639DE700B6
:1027A000EF20906922858545EF304001CA8522855A
:1027B000EF30400609BFEF20D07422858545EF2019
:1027C000F07FCA852285EF300006F5BD411122C495
:1027D00026C24AC006C6AE843284368921E99306F1
:1027E0008031054685451545EFF0AFFF8947639376
:1027F000F40893068031054685451D45EFF06FFED0
:102800008547631DF40A93068031054681451945C5
:10281000EFF02FFD2244B24092444A8502499306CC
:1028200000310146854541016FF0AFFBC147631997
:10283000F5009306803105468545130530026DB7D6
:10284000930700026319F50093068031054685451C
:102850001305D00251BF93070003E30CF5FC930767
:102860000004E315F5F89306803105468545130508
:10287000A0049DBFC9476399F400930680310546C3
:102880008545130550029DBF930720026399F4000C
:1028900093068031054685451305F00285B79307F9
:1028A0002003E38CF4FC93072004E39BF4F49306E9
:1028B0008031054685451305C00489B7C5476319AE
:1028C000F40093068031054681451305400289B71F
:1028D000930710026319F400930680310546814581
:1028E0001305E00235B7930710046319F40093064B
:1028F0008031054681451305B00419BF93071003C5
:10290000E31AF4F07DBF397122DC26DA4AD84ED6BC
:1029100052D456D25AD006DE2A842E89328AB68AFA
:102920003A8BBE84C28951E5056585450505EF20D2
:10293000D020DA865686D2854A85EFF03FE9B70780
:1029400004013EC62318010085476388F408C9C006
:1029500009476389E4088D466389D40893070020FA
:10296000231BF1009D47231EF100AD679387479617
:102970000A043E9400408E096C002285231C31011C
:10298000231D0100EF201021C1476315F90685457D
:102990000545EF20007022858545EF205025F25037
:1029A0006254D2544259B259225A925A025B21615E
:1029B000828085476318F500854511650505EF2080
:1029C000B01985BF8947E316F5F685452165FDB742
:1029D00023190100231A010051B723190100231AFA
:1029E0009100ADBF23199100F5B72319E100231A17
:1029F000F100ADB793070004E31FF9F83715200085
:102A000085451305051071B7AD670A05938747968D
:102A1000AA9798432316B7008357870093F70708B0
:102A2000E5FF8280AD670A0593874796AA979C4386
:102A300013D785002396E70003D78700137707088D
:102A400065FF93F5F50F2396B70003D7870013773B
:102A5000070865FF8280011122CC26CA4AC806CE2B
:102A60002A842E89B28401E9056585451305058010
:102A7000EF20B00C39A08547631EF5028545EF2095
:102A8000B00DAD67938707970A043E9408404C0049
:102A900023142101231291002315010023130100A7
:102AA00023060100EF209016F2406244D2444249CE
:102AB000056182808947E303F5FC8D476315F500C6
:102AC000854511456DBF91476315F5008545214545
:102AD0007DB79D476315F5008545096551BFA14741
:102AE0006316F50085453705080059B7A547E31A71
:102AF000F5F8854537051000A5BFAD670A05938732
:102B00000799AA9798438357070093F70708E5DFCB
:102B1000C205C1812312B7008280411122C426C29E
:102B20004AC006C62A892E84B384C500631894005F
:102B3000B240224492440249410182800504834507
:102B4000F4FF4A85EFF07FFBD5B7411122C426C2BE
:102B500006C6AA842E848345040091E5B24022442F
:102B600092444101828026850504EFF01FF9E5B704
:102B7000411122C426C206C64AC02A84AE841DEE74
:102B8000AD6713172500938707992E86BA9793058B
:102B900050528843EF20F062938781843E9403452E
:102BA0000400B7E700E0AA97238007408DC42244C1
:102BB000B2409244024941016FF0EFD4854763135C
:102BC000F602AD6713172500938707992E86BA97EB
:102BD000930570727DBF2244B24092440249410184
:102BE0006FF00FD489476319F604AD6713172500FA
:102BF00093870799BA9703A9070005469305505292
:102C00004A85EF20105C13045403A68622850146F2
:102C10008145EFF08FD34A85054693057072EF200A
:102C2000505A22852244B2400249A6869244054663
:102C3000814541016FF06FD1B24022449244024974
:102C400041018280AD670A0593870799AA97984347
:102C50008357070093F7070299C783574700054535
:102C60002380F500828001458280411106C60DE176
:102C700085476398F522E14601462545EFF06FB69A
:102C80009146014681452945B24041016FF06FB53B
:102C90008947631FF500E14601468545130560023B
:102CA000EFF02FB491460146814513057002E9BF4C
:102CB000C147631DF500E146014685450945EFF032
:102CC0004FB29146014681450D457DBFC947631FFF
:102CD000F500E1460146854513055006EFF06FB05B
:102CE0009146014681451305600679BF93070002AE
:102CF000631FF500E146014685451305A002EFF08C
:102D00004FAE9146014681451305B002B5BF93070A
:102D10002002631FF500E146014685451305A00426
:102D2000EFF02FAC9146014681451305B004A9BFD1
:102D3000930740026310F502E146014685451305FD
:102D40008006EFF00FAA9306800401468145130523
:102D500090061DBF93070004E30FF5FA93072004C4
:102D6000631FF500E1460146854513050002EFF0BB
:102D70004FA79146014681451305100231B79307CD
:102D80000005631FF500E146014685451305C004B3
:102D9000EFF02FA591460146814513052006EDB5BC
:102DA00093072005631FF500E1460146854513059D
:102DB0008008EFF00FA39146014681451305900866
:102DC000E1B5930700066310F502E146014685452B
:102DD00013050004EFF0EFA093068004014681453F
:102DE0001305100455B593072006631FF500E1464F
:102DF000014685451305A008EFF0AF9E91460146B8
:102E000081451305B00849B593070007631FF50016
:102E1000E1460146854513052004EFF08F9C91465D
:102E2000014681451305300485B5930720076317D4
:102E3000F500E146014685451945C5B793074007AA
:102E4000631FF500E146014685451305C008EFF014
:102E50004F999146014681451305D00835B5930732
:102E60000008631FF500E14601468545130540044F
:102E7000EFF02F979146014681451305500429B57F
:102E800093072008631FF500E146014685451305B9
:102E9000E008EFF00F959146014681451305F008D3
:102EA000E5B3B24041018280797122D44ECE2A84AA
:102EB000AE890545854526D24AD006D6B2843689E4
:102EC000EF20A0478947639FF4048D476316F900FC
:102ED00085451145EF20E01B631C041285451165F3
:102EE000EF20A045CA852685EFF03FD8B7070C0034
:102EF0003EC4AD67938707990A043E9400408A85D3
:102F00004EC0228502C223160100EF20301C22850C
:102F10008545EF205029B250225492540259F2496B
:102F200045618280C9476398F400CD47E316F9FAFA
:102F30008545214545B793072002639BF40093071D
:102F40003002E31BF9F8370514008545410559B7F0
:102F500093074002639CF40093075002E31EF9F6C6
:102F600037051400854513050503ADB79307200405
:102F70006399F40093073004E310F9F6854505657D
:102F800091BF93072005639BF40093073005E31579
:102F9000F9F437052000854505052DBF9307200668
:102FA000639CF40093073006E318F9F237150080AC
:102FB00085451305058039BF93072007639EF400FC
:102FC00093073007E31AF9F0370701405C4FB70663
:102FD0004000D58F5CCF09B793074007639CF4008E
:102FE00093075007E31AF9EE370701405C4FB70625
:102FF0008000C5B793072008E390F4EE93073008EC
:10300000E31CF9EC370701405C4FB7060002D1B76B
:1030100085476318F400854537050200EF20C0336B
:10302000D1B589476316F400854537050400FDB71F
:103030008D476316F400854537050800C5B79147ED
:103040006316F400854537051000C9BF9547631620
:10305000F400854513050004D1B799476316F400C1
:103060008545130500085DBF9D47E31DF4E68545D2
:103070001305001065B73971B7B7000062CC66CA96
:1030800003AC079B83AC479B26DA52D456D25ECE64
:103090006AC8014A814AB76B002022DC4AD84ED662
:1030A0005AD06EC606DE5289D68913043002938444
:1030B0000194130BE005938BCBBC138D418C930DC6
:1030C0006005B307940083C7070063986701B307DF
:1030D000A40183C70700638A67036286E6864A8580
:1030E000CE85EF30E023B3878B002A8903C5070024
:1030F000AE893305AB40EF40104D2A86AE8652852F
:10310000D685EF30E0212A8AAE8A0504E31BB4FBA2
:103110005285D6854A86CE86EF309013B76C002054
:103120002A8AAE8A014B814B13043002130CE0054E
:10313000938CCCBC138D418C930D6005B3878400B8
:1031400083C7070063988701B307A40183C70700FB
:1031500063848703B3878C0003C507003305AC4045
:103160003305A502EF4030462A86AE865A85DE85B5
:10317000EF30001B2A8BAE8B0504E311B4FD4A86A9
:10318000CE865A85DE85EF30B00C2A84AE84528616
:10319000D6865285D685EF30307D2A86AE8622854A
:1031A000A685EF40E047B7B7000003A6879B83A63C
:1031B000C79BEF303065F25062541345F5FFD2548F
:1031C0004259B259225A925A025BF24B624CD24C8B
:1031D000424DB24D7D812161828039714ED6B70951
:1031E00000201387C93406DE22DC26DA4AD852D4FE
:1031F00056D25AD05ECE62CC66CA9305C70B8146C2
:103200009389C9341305C00B7D589308B003930705
:10321000700721A0FD17638D07013386A7023A9638
:103220000346060065FA938747FC63E3F8008506CA
:103230000507E31EB7FC9307300B054563CED70A9D
:10324000B7B7000083AB079C83AA479C1389418CC6
:10325000130470079384418C03457907130BF4FF23
:103260007D19EF40703D2AC4034579072EC6EF4013
:10327000B03C2246B246EF10C0245E86D686EF30C0
:10328000705863480508930764FF13076004636878
:10329000F708B387840003C907009307D00563F0DC
:1032A000270993870194A29783C7F700ADEBCA99CA
:1032B000014B930CC00B7D5C130A5400B3079A03B7
:1032C000CE9783C70700A1EB5285EF40D02F2AC4C9
:1032D00022852EC6EF40302F2246B246EF10601EE8
:1032E0005E86D686EF30F05C6347A002050B7D1941
:1032F000FD19E31389FD0945F2506254D254425935
:10330000B259225A925A025BF24B624CD24C216162
:1033100082805A8491B77D1AE3128AFBC9BF930752
:10332000F0040145E3DA87FCA29403C70400930785
:103330003006E3F3E7FC93870194A29783C7570015
:10334000C5FF9307C00B6D143304F4029306C00B42
:103350008147338787004E970347070011E3050530
:103360008507E398D7FE1325A50A1345150069B70D
:10337000B76600209386C6BC03C7A6059307E00581
:1033800063F5E7049387418C03C7A7051306B00BC9
:10339000631CC70203C6C7056318E60203C7E70537
:1033A0006314C70283C787056390E70213870194FC
:1033B0000346A70503475707998FB297B297094766
:1033C000B3C7E702238DF6048280E30FF7FE13876D
:1033D00001940346C7058347A705D18F0346E70538
:1033E00003478705D18FD98FE5F31387418C0346B7
:1033F000A70583475707B307F640C9B703A6C18B94
:103400004111B7670020B766002006C622C426C255
:10341000238207C4A38C06B64D476351C704370601
:1034200000201306A6360148814881457945130ED0
:10343000C00BFD5E130F7009130770072DA01378E2
:10344000F50F9375F70F854805050506E316E5FFAB
:1034500063860800A38CB6B6238207C5054425A061
:103460007D17E303D7FF3303C703329303430300FE
:10347000E31803FEE355B7FC63860800A38CB6B6D9
:10348000238207C5014403C547C4B7B40000EF4019
:10349000B01A03A6849C83A6C49CEF108002B7B721
:1034A000000003A6079D83A6479DEF309040634F21
:1034B000A000014519E4B767002005472384E7B859
:1034C0000545B24022449244410182800145D5BF66
:1034D000B767002083C787B8638A071E397106DE85
:1034E00022DC26DA4AD84ED652D456D25AD05ECEF4
:1034F00062CC66CA6AC86EC6631F050E37640020B8
:10350000034594B7B7640020376A0020EF40D0121B
:10351000B7B700002A86AE8603A5879D83A5C79D01
:10352000B70B0020EF00F0792A8903C544C4AE89A7
:10353000930D7007EF405010B7B700002A86AE8693
:1035400003A5079E83A5479E130ACABC138B01944B
:10355000EF0030772A86AE864A85CE85EF30404F21
:10356000034D94B783CA44C42A89AE896A8493847C
:10357000418C938BCB3463F18D02F2506254D25460
:103580004259B259225A925A025BF24B624CD24CC7
:10359000424DB24D216182803305A441EF40B0021B
:1035A0004A86CE86EF30C04A2A8C5685AE8CEF40D4
:1035B00090012A86AE866285E685EF207056EF4040
:1035C000007A33076401034707000948B3079400F2
:1035D0002A97334707032380A7009308C00BB3073C
:1035E00044012380E700B30714030504DE97AA977C
:1035F0002380070049B78547E311F5F837640020B9
:10360000034594B7B7640020376A0020EF40D0022A
:10361000B7B700002A86AE8603A5879D83A5C79D00
:10362000B70B0020EF00F0692A8903C544C4AE89B6
:10363000130D7007EF40500001468146EF0070689F
:103640002A86AE864A85CE85EF308040834A94B77D
:1036500083CD44C42A89AE89568493840194130A85
:10366000CABC138B418C938BCB34E3688DF06E8591
:10367000EF4060752A8C33055441AE8CEF40A07446
:103680004A86CE86EF30C03C2A86AE866285E685C5
:10369000EF301079EF40A06C330764010347070057
:1036A0000948B30794002A97334707032380A700EC
:1036B0009308C00BB30744012380E700B30714034A
:1036C0000504DE97AA972380070045B78280B76775
:1036D000002003C787B885476318F704B7050020A3
:1036E000130780021305C00B9385C5341308B00B74
:1036F000B94813035006B307A70201468146AE97A7
:1037000083CE070003CE170085066383CE0105062E
:103710008507E39706FF63C7C8000507E31D67FC3D
:1037200001458280054582808280411122C483C781
:10373000518B06C6BDE3EFF07FCC1DC503C7418B9F
:1037400089476313F70203A7018B09E713075006A4
:1037500023A8E18AB767002003C5A7B7EFF05FD7BA
:10376000154723ACE18815A83767002083C7518B24
:103770000347E7B7D98F95E703A5C18BB76700204B
:103780009387C7B8AA9783C5F7FFD52A19C90947F0
:1037900023ACE1888547A38AF18AB24022444101E3
:1037A0008280EFF09FA329C183C7418B8946638D37
:1037B000D70203A6C1850DCA631BD5003767002059
:1037C000834787CC85072304F7CC254759BF854617
:1037D000E315D5FCB766002083C686CCDDDE850701
:1037E000238AF18A1147B5BFEFF07FEE09C983A79D
:1037F000C1876356F000994723ACF18879BFEFF099
:103800009F8719C18547CDBF23AC018879B75D710A
:10381000B7B70000A2C45AD85ED603AB879F83AB6C
:10382000C79F13840194A6C2CAC04EDE56DA62D482
:1038300066D286C652DC6AD06ECEAA842A94054926
:103840009309A5FFA94A514CF94C63543907034A1F
:10385000F4FF63000A128347D4FFB307FA409507C9
:1038600063E9FA108347B4FFB307FA40A90763621C
:10387000FC10834794FFB307FA40BD0763EBFC0ECF
:1038800003453400EF40405B2AC452852EC6EF400A
:10389000A05A2246B246EF00D0425A86DE86EF306A
:1038A00060766348050CB387244137670020230CFA
:1038B000F7B6938B64FF63467901B7670020238CCA
:1038C00007B6B7B7000003AA879F83AAC79F1384D0
:1038D000418C2694054B130CB00BA94C514DF94D5E
:1038E00063543B070349F4FF630889098347D4FF06
:1038F000B307F940950763E1FC088347B4FFB307BA
:10390000F940A907636AFD06834794FFB307F940AE
:10391000BD0763E3FD0603453400EF40E0512AC4D0
:103920004A852EC6EF4040512246B246EF0070391C
:103930005286D686EF30006D63400504B38464413F
:10394000B7670020238697DC63467B01B7670020BA
:10395000238607DCB640264496440649F259625A4B
:10396000D25A425BB25B225C925C025DF24D6161B5
:10397000828005097D14D1BD050B7D1495B7CD4717
:1039800063DEA70AB7070020370600209387774039
:103990001306C63481461308C00B9308C0037D5339
:1039A0001307700721A07D17630D67003305070318
:1039B0003E950345050065F91305E7FCE3E5A8FE20
:1039C00085061387F7FF6384C700BA87D1BF9307C3
:1039D000300B63C5D70601112E8506CE22CC26CA30
:1039E00037640020EFF0BFE20345C4DCB764002079
:1039F000EF4080442AC403C584B72EC6EF40C043BD
:103A00002246B246EF00F02BB7B7000003A6879E10
:103A100083A6C79EEF30E069634CA00003C784B75C
:103A2000CD4763F7E7000347C4DC054563E3E700E0
:103A30000145F2406244D2440561828001458280A2
:103A40001D7162DC86CEA2CCA6CACAC8CEC6D2C4BC
:103A5000D6C2DAC05EDE66DA6AD86ED62ACC79477C
:103A60002E8C6347B704138701942E978346070073
:103A7000130780026366D702054713050005631923
:103A8000E622F6406644D6444649B649264A964A56
:103A9000064BF25B625CD25C425DB25D2561828066
:103AA00065476347B700094713058007E30BE6FC4A
:103AB00005476317E620B7B6000083A7069F03A853
:103AC000469F01498149938C0194E29C814D4A8A29
:103AD000CE8A4A8BCE8B4A84CE8401473EC442C6EE
:103AE00003C51C00330DEC403ACEEF40E0342AC849
:103AF00003C50C002ECAEF4020344246D246EF00E8
:103B0000501C2246B246EF30E04F72476348050C26
:103B1000850D05079547FD1CE314F7FC3305B741F8
:103B2000EF40602A2A8DAE8D2A86AE862285A68534
:103B3000EF2010722A84AE846A86EE865A85DE856E
:103B4000EF2010712A8BAE8B2286A6866A85EE85C1
:103B5000EF3080615A86DE862A8DAE8DEF30C060F0
:103B60002A86AE865285D685EF30902B2A8AAE8A79
:103B70002286A6866A85EE85EF30005F2A86AE86AD
:103B80004A85CE85EF30D0292A86AE865285D685E5
:103B9000EF20106C01468146EF2080782A8962452B
:103BA000AE89EF4040224A86CE86EF30E05B2A8A1B
:103BB000AE8A4A86CE862285A685EF30E05A2A86CE
:103BC000AE865A85DE85EF30B0252A86AE865285D0
:103BD000D685EF20E074EF40801865B56A853ACE4F
:103BE000EF40601E2A86AE862285A685EF204073B0
:103BF0002A843305AD03AE84EF40E01C2A86AE86EE
:103C00004A85CE85EF20C07183C80C002A89AE8911
:103C1000468546C8EF40201B2A86AE865A85DE853B
:103C2000EF200070C2482A8BAE8B3385A803EF408B
:103C300080192A86AE865285D685EF20606E2A8A44
:103C4000AE8A7247F9B56A853ACEEF40C0172A8628
:103C5000AE862285A685EF20A06C2A843305AD03AD
:103C6000AE84EF4040162A86AE864A85CE85EF2088
:103C7000206B83C80C002A89AE89468546C8EF4070
:103C800080142A86AE865A85DE85EF206069C24898
:103C90002A8BAE8B3385A803EF40E0122A86AE86CE
:103CA0005285D685EF20C0672A8AAE8A7247BDA0AA
:103CB00065476347B700094713058007E303E6DC60
:103CC000B7B6000083A7069F03A8469F0149814914
:103CD000938C418CE29C814D4A8ACE8A4A8BCE8B52
:103CE0004A84CE8401473EC442C603C51C00330D3E
:103CF000EC403ACEEF4040142AC803C50C002ECA4F
:103D0000EF4080134246D246EF00A07B2246B246E7
:103D1000EF30402F7247E34805F2850D05079547C0
:103D2000FD1CE314F7FCDDBB7971B76700204AD0B6
:103D30003769002022D40347C9DC03C487B726D2E1
:103D400006D64ECE52CC56CA5AC85EC6BE846353FF
:103D500087003A84376A0020B70A0020130B7007E7
:103D6000130ACABC930BC00B938ACA34635D8B00E1
:103D7000B250225492540259F249624AD24A424BFA
:103D8000B24B4561828083C584B705462285F9150B
:103D9000EFF01FCB8345C9DCAA8909462285F915B6
:103DA000EFF01FCA3387A90089463347D702B3070C
:103DB00044012380E700B30774030504D697BE9936
:103DC00023800900AA97238007004DB7011122CC58
:103DD00083C7518B06CE26CA4AC84EC6E9C703A779
:103DE0004181854793844181631AF70283A7C18B80
:103DF000376700201307C7B8BA9703C5F7FFEFF07E
:103E00001FA103C731909307300B63E7E70003C797
:103E1000F197A94763E4E700EFF01FF183C7518BE7
:103E20000547639AE7069840631FF70603A7C18B0F
:103E3000954763CAE706894723A00400A38AF18A4D
:103E4000EFF06FA33335A00083C7518B090523AC76
:103E5000A1888D496385370303A5C18BB76700200F
:103E60009387C7B8AA9783C5F7FFEFF05FB11DC569
:103E700085479CC08947A38A318B23ACF18803A76F
:103E8000C18B854763C1E70237670020230FF7B670
:103E9000A38A018A09A80947E384E7FA03C7518B7B
:103EA0008D47E30EF7FCF2406244D2444249B249E6
:103EB00005618280B766002081479386C6CC1307D0
:103EC00000103386D700230006008507E39BE7FE3A
:103ED000996793870782AA971308C00B0147330697
:103EE000E50003460600050736968345060085056E
:103EF0002300B600E31507FF1305C50BE390A7FEEB
:103F000082801D7137670020D6C286CEA2CCA6CA99
:103F1000CAC8CEC6D2C4DAC05EDE62DC66DA6AD84F
:103F20006ED68146930AC7CC93050010338656019E
:103F30000346060093970601C1870DCE9306F00F46
:103F40001308F00F6388D7009306E00F1308E00F03
:103F50006397D702F6406644D6444649B649264A96
:103F6000964A064BF25B625CD25C425DB25D428572
:103F7000256182808506E39BB6FA930700103E898F
:103F8000BE86014C1306F00F93950601C185635E52
:103F9000B60EBE86014A9305F00F139606014186C0
:103FA00063DCC50EB7B6000083AD06A003AD46A026
:103FB0000148814C8149930EE00FE3CDFEF8B386B2
:103FC0002A0103C4060042CE3ECCA29933048902E2
:103FD0004E85EF3070662A8B6285AE8BEF30D065F0
:103FE0002AC433053C412EC6A29CEF30D05D2AC8BE
:103FF00066852ECAEF3050645A86DE86EF20502543
:104000002A8433059A41AE84EF30F05B4246D246B3
:10401000EF2010242A86AE862285A685EF304060E8
:104020002246B2462A84AE845A85DE85EF2050228D
:104030002A8BAE8B2246B2464245D245EF20502114
:104040002A86AE865A85DE85EF3000122286A68645
:10405000EF3080112286A686EF3000112A86AE86C8
:10406000AA842E846E85EA85EF30A004E247724868
:10407000930EE00F6356050013F8F70FA68D228DFF
:104080008507C207C18705090DBFB385DA0083C55F
:10409000050085062E9CCDBD3386DA00034606005A
:1040A0003306D6028506329ACDBDB767002083C895
:1040B00047B73707002099651307C7340146130334
:1040C000C00B938505823308C5008147B306F8000D
:1040D00083C60600330EF7008507B3B61601FD163A
:1040E0002300DE00E39467FE1306C60B1307C70B1D
:1040F000E31BB6FC8280B705002085461305C00B84
:104100009385C5341303F00F130ED01F930EE01FD9
:104110007D5F1308B00B93087007B387A6020546AE
:10412000AE9703C7170005061DE783CFD70B03C75C
:1041300057F47E9783CF27007E9783CF07007E9723
:1041400063D4EE00A380E7018507E31C06FD850626
:10415000E39516FD8280E31967FE83CFD70B03C773
:1041600057F47E9783CF27007E9783CF07007E97F3
:10417000E34CEEFCA3800700C1BF411106C622C478
:104180002A84EFF03FD3EFF0DFD7B7670020238A10
:10419000A7B62285EFF07FF12244B24041016FF0D3
:1041A0009FF58547631AF50093060031054685455E
:1041B000130520086FD0FFE289476319F5009306C5
:1041C00000310546854513053008EDB78280056549
:1041D000397185451305058006DE22DC26DAEF10ED
:1041E000C0159307900285442314F10028008547E9
:1041F0002305F10026C6EF00F07437340140930721
:10420000F0083ECC2C089307501D130504C03ECE89
:1042100023000102EF10801F0546130504C08545E9
:10422000EF10205B130504C08145EF1060578545F2
:104230000965EF1080109307C00308082318F100E8
:104240002309910026CAEF00F06F9307F0593ED280
:1042500089679387F7704C10130504403ED42306FA
:104260000102EF10A01A0546130504408545EF1022
:104270004056130504408145EF108052ED22F25064
:104280006254D25421618280411106C6EFD0FF8F63
:10429000EFD03F980145EFC0DF840545EFC07F8434
:1042A00005455128094541280D45712011456120DA
:1042B00015455120194541200945EFD0FFA80D456E
:1042C000EFD09FA81145EFD03FA81545EFD0DFA74D
:1042D0001945EFD07FA70545EFF0BFEC0945EFF09A
:1042E0005FECEFD08FC9F122EFD0FFE51305B00BE3
:1042F00023A8018AEF407034B767002023A2A7B833
:104300001307850AAA8723A007009107E39DE7FE0C
:1043100091471CC18D4705472324F50AB2408947C0
:1043200058C15CD178C17CD12322E5082322F50A4B
:1043300041016FF0DFE9411122C406C685472A8496
:104340006314F50293068034054681451305000485
:10435000EFD03FC999476315F406930680340546AC
:1043600081451305500425A089476319F50093067C
:1043700080340546814513051004D9BF8D47631D60
:10438000F500930680340546814513052004224438
:10439000B24041016FD0FFC491476319F500930605
:1043A00080340546814513053004D5B79547E3139E
:1043B000F5FA930680340546814513054004C1BFD4
:1043C000B240224441018280411106C622C401ED5F
:1043D00013858182EFD06FAF138581822244B24072
:1043E00041016FD08FAE85476319F50013850183B6
:1043F000EFD0AFAD13850183D5B789476319F500B9
:104400001385C182EFD06FAC1385C182C1BF9147C4
:104410006319F50013858181EFD02FAB138581815E
:1044200075BF8D476319F50013850182EFD0EFA9A1
:104430001385018265B795476319F5001385C1811E
:10444000EFD0AFA81385C18151BF99476319F5001B
:1044500013854182EFD06FA71385418241B7B240E7
:10446000224441018280411122C41385418906C63C
:10447000EFD0AFA5138541892244B24041016FD0EE
:10448000CFA441111385418906C6EFD00FA4B240D5
:104490001385018341016FD04FA34111138501831F
:1044A00006C6EFD08FA2B2401385418941016FD07B
:1044B000CFA193068004054681451305A0066FD061
:1044C0005FB2011122CC26CA4AC84EC652C456C297
:1044D00006CE3289B6892A8AAE8AEF306014014648
:1044E00081462A84AE84EF20D03C635A0500528670
:1044F000D6864A85CE85EF30A0122A84AE842285E6
:10450000F2406244A6854249D244B249224A924AC4
:104510000561828075718547EECE376E0020AA8DC9
:10452000376500202380F18CA30BFEB6A38EF19A91
:104530009307C5BC3ED69387418CDAD83ECC138B0B
:1045400001949387019437B600003ECE8327869B63
:1045500022C5B7660020B7620020B76E002013079F
:10456000700726C34AC1CEDED2DCD6DADED6E2D46C
:10457000E6D2EAD006C7238606B823AE018A23AC6A
:1045800002DC23AC019A23AC018AA38A0EB6238EE7
:10459000E19A7ED076D272C81AD446CA0328C69B46
:1045A00015663ED89307267C3EDC9387C6B89304F5
:1045B000C5BC938A418C130A70079E8B168CFA8CAB
:1045C00042DA1309F00F9309B00B054D3EDE930755
:1045D0007007631AFA1895679387177C3386FD0076
:1045E0009306E005034516009385F6FF631B25152A
:1045F0000345060063170514F247A38BD706E2575D
:104600009306E0053386FD000345060093851600FA
:104610006311251503451600631D0512E247A38BA0
:10462000D70683C67A079307E00583457B07638037
:10463000F60A638EF508894763E6B7029307700BA5
:1046400063F2D7021306CAFE9307A00563ECC70006
:1046500003A6C18BF2573305F6000506230045017A
:1046600023AEC18A639D051C6387360103268CDD5A
:104670000506232CCCDC9307500763CA470503C605
:104680008A07FD573385C6406351F502C24703C50B
:1046900077B7631CA501631A3601925713061A00F7
:1046A000A38AC7B6C247A38B07B603468B073385D9
:1046B000C540635EAD00D24703C5D19B6319A50118
:1046C00019E6A257238E419BD247A38E019AAE963C
:1046D0008586A38BD4067D1AFD14FD1A7D1BE31875
:1046E0000AEEEFF08F84EFF06FEE83A68189054725
:1046F0006394E600EFE0DFC7B70600201305C00BA8
:104700009386C63413067007B25733874701834533
:1047100007003307AA02050A36972E9723000700E1
:10472000E314CAFEBA402A449A440A49F659665A22
:10473000D65A465BB65B265C965C065DF64D4961D3
:1047400082807D16AE86E39F05E8F247A38B0706BD
:104750007DB50506AE86E39935EBE2471307B0FB5E
:10476000A38BE7067DBD03C58A07EF30E06C2AC442
:1047700003458B072EC6EF30206C2A86AE86AAC46E
:10478000AEC62245B245EF20B06901468146AAC0B7
:10479000AEC2EF201012064796472648B648635A25
:1047A00005002246B2464285C685EF2070672A87FB
:1047B000AE874256D2563A85BE85EF20B004634993
:1047C00005069307C00B3306FA0283C68407B68535
:1047D0006E968DC1B308B60083C808001385F5FF37
:1047E000639E2803B308A60083C8080063980802E4
:1047F000A30BBB069307A00BE3C5D7E23305D60096
:104800000345050093851600631E25013305B60098
:104810000345050001E9A38BDA0621B5A30B0B06BE
:10482000AA8545BF9307B0FBA38BFA06AE86D9B71E
:104830009307E005A38BFA06A30BFB06DDB3E39C0D
:1048400036E303C6018C6317A60182572380018CCF
:1048500023AC418B03A6819B050623ACC19A21BDE5
:1048600037670020F945930787C411462324B7C44E
:104870000967D0C3130607F413074796B146D8CF8C
:10488000654794C794D798D394DF056793062003B0
:1048900094DB93062748D4DF9306B004B4C3930691
:1048A000C757F4C793067008B4CB9306E728F4CF34
:1048B00093068002D0C7B4D751469306600490CFC8
:1048C000B4D31306C003930607FA130587381307FA
:1048D000C72590CBF4D7F8DF0D4637B700209306F5
:1048E0001004B4DB23AA070093060000D0D3C8D776
:1048F00023AA070223A4070423A2070423AC070466
:1049000023AA070423A20706ACDFF0DB93070760A6
:10491000D4C32320D76037B7002094C7D4C794CB23
:104920009307C761D4C394C7D4C794CB232ED76051
:104930008280797106D622D426D24AD04ECE52CC6D
:104940002E894CC14C452A844A85B284EF304055AB
:10495000B7670020938787C49204BE94AA8948C48D
:104960008844EF40C0330C442A8A4A85EF30306FC8
:10497000AA855285EF30B0452A8A8840EF40203220
:10498000CA85EF30D044AA855285EF3060512A8A1B
:10499000C840EF40C030CE85EF307043B7B700005D
:1049A00083A587A0EF307006AA855285EF30404F6F
:1049B000C44408C82AC62685EF40602EB245EF30B1
:1049C000204EB7B7000083A5C7A0EF30302F634952
:1049D0000500096513050571058DEF40402C08C8D9
:1049E00033059040EF40A02BAA850848EF30703582
:1049F0006345A000930700001CC823242401084835
:104A0000B250225492540259F249624A456182805E
:104A1000011122CC376400201304C4BC0345A40553
:104A200026CA9304E0053385A44006CE4AC84EC684
:104A3000EF306039B7B7000003A607A183A647A1EE
:104A4000EF2080722A8903456404AE893385A4402F
:104A5000EF306037B7B7000003A687A183A6C7A1D0
:104A6000EF2080702A86AE864A85CE85EF10500BE7
:104A70002A8903451404AE893385A440EF30A0345D
:104A8000B7B7000003A607A283A647A2EF20C06D18
:104A90002A86AE864A85CE85EF109008EF30202C0E
:104AA000F2406244B767002023A4A7BCD244424925
:104AB000B24905618280397106DE22DC26DA4AD8E5
:104AC0004ED652D456D25AD05ECE62CC66CAA547D4
:104AD0006399F6020564930584380145EFC08F861B
:104AE000930544196254F250D2544259B259225A91
:104AF000925A025BF24B624CD24C054521616FC069
:104B00006F843764002085472A89AE8CB2891304EC
:104B100084C4639CF60483A70187A1CB83A7C185C6
:104B2000A9E7685CEF40A017B70500801D46AA847E
:104B3000B3C525016685EFF0DFDFAA852685EF3056
:104B40002036EF40601093150501C1810145EFB09B
:104B50007FFF685CEF40A0142A841D46CA854E85FD
:104B6000EFF03FDDAA85228511AA03A7C1878547FB
:104B7000630EF710939B460083A50188B307740169
:104B8000C447A5471306802563C3B70001462545E2
:104B90003386C44081476354B50093B7160093042D
:104BA000A0ABB38497028147B29405466356E600F2
:104BB0009387B6FFB337F0001306C0AEB387C702C2
:104BC000014CBE9483C7418B99C3132C2700B705B2
:104BD00000803686B3C52501668536C6EFF07FD5E1
:104BE0002AC4130580C13305AC025E942695EF40BC
:104BF000000BA245EF30C02AEF40000593150501D8
:104C0000C1810145EFB01FF403A60188A5474044C8
:104C100013078025B24663C3C7000147A545330784
:104C2000E440814763D4C50093B716001304A0ABDA
:104C300033848702054681473A9403A7C1876356A8
:104C4000E6009387B6FFB337F0001306C0AEB38714
:104C5000C70281443E9483C7418B99C393242700A4
:104C6000CA8536864E85EFF0DFCC2AC4130580C195
:104C70003385A4022295EF408002A245EF30402206
:104C8000EF30907C93150501C181A9BD95476384E0
:104C9000F6046854856793874719B7B4002023AC9E
:104CA000F460EF30D07F19462A8ACA854E85EFF02E
:104CB0005FC8AA855285EF30A01EEF30D07283D531
:104CC000846137B40020232AA4600145EFB09FE738
:104CD0008355446101BD684CEF30707CB70500809E
:104CE0001546AA84B3C525016685EFF09FC4AA8541
:104CF0002685EF30E01AEF30307593150501C1813C
:104D00000145EFB03FE4684CEF3070792A841546D6
:104D1000B1B501A001A001A001A001A001A001A0C6
:104D200001A001A001A001A001A001A001A001A07B
:104D300001A001A001A001A001A001A001A001A06B
:104D400001A001A001A001A001A001A001A001A05B
:104D500001A001A001A001A001A001A001A001A04B
:104D600001A001A001A001A001A001A001A001A03B
:104D700001A001A001A001A001A001A001A001A02B
:104D800001A001A001A001A001A001A001A001A01B
:104D900001A001A001A001A001A001A001A001A00B
:104DA00001A001A001A001A001A001A001A001A0FB
:104DB00001A001A001A001A001A001A001A001A0EB
:104DC00001A001A001A001A001A001A001A001A0DB
:104DD0007390123497C1FF1F938141BB17B100201C
:104DE00013014122176500001305050897B5FF1F41
:104DF000938545211386818563FAC50083220500CA
:104E000023A0550011059105E3EAC5FE13858185B0
:104E100097750020938585986377B500232005005A
:104E20001105E36DB5FEFD42739002BCFD42739027
:104E30004280B78200009382828873A0023097B2CA
:104E4000FFFF9382A21F93E2320073905230EF1063
:104E5000003B97C2FFFF9382629C739012347300F1
:104E600020304111B727014006C693870740631CD5
:104E7000F500854513050020FD2981451305002017
:104E8000B2404101CDA9B737014093870780631A2B
:104E9000F500854513050040F929814513050040BB
:104EA000C5B7B240410182805C413707F1E013078A
:104EB000F7EF944D7D8F9C41D58FD44DD58FD44144
:104EC000A206D58FD98F5CC11C4537F7F1FF1307B8
:104ED000D77FD4457D8F9C49D58F94458606D58F45
:104EE000D98F1CC55C55370710FF7D177D8F83C791
:104EF0004501FD1793F7F70FD207D98F5CD5828054
:104F00001C4589C593E717001CC58280F99BEDBF3E
:104F10001C4593E787001CC5828008450D810589E3
:104F200082801C4593E747001CC5828008450981A3
:104F3000058982805841032805004C453706014009
:104F4000930706403E979346F8FFB1C58325064078
:104F5000F58D2320B640D043F18ED4C31443B3E67D
:104F6000060114C3184190479346F7FF758E90C70A
:104F7000D047F18ED4C7144541466399C600944783
:104F8000D98E94C7D447558FD8C78280B69794439B
:104F9000558F98C382801C43F58F1CC38280B7074E
:104FA00001401387074083A70740584B698F09C703
:104FB0007D8D3335A000828001458280B707014096
:104FC00023AAA74082809C4513F7070113F8F70036
:104FD00001C7D8413368E80083D5050013F7F50F02
:104FE00039C318418146854E3D4F930F800293028D
:104FF0008004214E3396DE00B3F8C500631116031A
:105000009398260033131F011343F3FF3377E30014
:10501000B318180133E7E800639FF70550C9850608
:10502000E39AC6FD18C11307F00F6375B704544126
:105030002146854E3D4F930F800293028004414EDE
:10504000B398CE0033F715016392E80213172600D8
:1050500001173313EF001343F3FFB376D300331775
:10506000E800D98E639DF701232A15010506E3198F
:10507000C6FD54C18280E39457FA10C94DB7E39737
:1050800057FE23281501DDB719C20CC982804CC90F
:105090008280B707014063550504D44FB70730003D
:1050A000131705013376F5004183631DF6023706B9
:1050B00000F17D1637080140B3F7C600832648008B
:1050C000758E2322C80099C5935655019206331751
:1050D000D700D98F37070140635E05025CCF82801D
:1050E000D4436DBF9317B50063D0070293570501F2
:1050F00013F6F7008D47B397C70093C7F7FFF58FF7
:10510000B706000FD58FC1B7935755019207B31754
:10511000F700E5B75CC3828013F7C50F93F735003E
:10512000B7050140BA9594458A073D473317F70004
:105130001347F7FF758F98C598453315F500598DBE
:1051400088C582809387C18994430347050089E617
:1051500083472500920731A8944305466391C6040E
:10516000834725000346150092076314D60093E792
:1051700007F8B7E600E093F7F70FBA962380F640FA
:105180008546935757003397E6005441ADC6938741
:1051900007048A07B7E600E0B69798C382808C437D
:1051A00089466393D50283461500834725006365CE
:1051B000D6008A06B69779BF9386E6038A06B69725
:1051C00093F7F70F920765B790438D46631ED6009D
:1051D00083461500834725006364D6008606D9BF41
:1051E0009386C6078606E1BF94439147E39AF6F893
:1051F0008347150085B79387070661BFB71602403E
:10520000DC4251777D17F98F5D8DC8C282803717D8
:1052100002405C439146B18B6385D700A14663860B
:10522000D706B7177A00938707201CC137160240AC
:105230005C42370700201307470D9183BD8BBA9757
:1052400083C607001C41B3D7D7005CC15442A1827A
:105250009D8ABA9683C60600B3D6D70014C55442B9
:10526000AD829D8A369703470700B3D7E7005CC538
:105270005842398393763700138741833697034723
:105280000700B3D7E7021CC982805C4354434167DF
:10529000C983F98E37F7FF1F0327C770BD8B8907B6
:1052A0001316170163480600454601476392C7027B
:1052B000C94739A809476389E7023D476388E70280
:1052C00041476388E702454601476393C700C147EA
:1052D00085E6B746024083A60680C18A8DC6B7160A
:1052E0007A009386062025A00147D9B70547B54720
:1052F000C5B70147BD47E9BFB7160240D442139670
:10530000E600E35E06FCB7163D0093860690B38781
:10531000D7021CC101DF1C41858301BF99C5371726
:1053200002405C4B5D8D48CB8280B7170240D84B62
:105330001345F5FF798DC8CB828099C53717024098
:105340001C4F5D8D08CF8280B7170240984F1345E0
:10535000F5FF798D88CF828099C5371702405C4F61
:105360005D8D48CF8280B7170240D84F1345F5FFB7
:10537000798DC8CF828099C5371702405C475D8D13
:1053800048C78280B7170240D8471345F5FF798D8B
:10539000C8C78280035705008D679387070483D6AB
:1053A00025007D8F83D70500D58F83D64500D58F07
:1053B00083D66500D58F83D68500D58F83D6A5008B
:1053C000D58F83D6C500D58F83D6E500D58FD98FED
:1053D0002310F5000357C501FD779387F77FF98FF9
:1053E000231EF50083D705012318F500828083571B
:1053F000050091C593E707042310F5008280C207DA
:10540000C18393F7F7FBC207C183FDB7835705003C
:1054100037370140930607C0C207C1836300D50434
:10542000B7060040630CD502938606406308D50298
:10543000B7160040138606806302C502938606C035
:10544000630ED50013070740630AE5003757014094
:10545000930607C06304D5006317E50003D7250052
:1054600093F7F7F8D98F37170040630DE50013075E
:1054700007406309E50093F7F7CF03D76500C2073C
:10548000C183D98F2310F50083D745002316F50279
:1054900083D705002314F502B7370140138707C0EF
:1054A000630EE50093870740630AF500B757014094
:1054B000138707C06304E5006316F50083C7850002
:1054C0002318F5028547231AF500828083570502C9
:1054D00003D6050003D82500C207C183F99BC20784
:1054E000C1832310F50283570502835645000357F5
:1054F0008501C207C183420741831377C7F8518FE3
:1055000003D68500F59BC20633660601D18F373678
:105510000140130806C0C182630E05011306064050
:10552000630AC50037560140130806C0630405012D
:105530006313C50203D6A500DD9B03D8E500D18F18
:1055400003D64500ED9B93F6F6CFD18F03D6C50069
:1055500033660601D18E2312D500231CE50003D744
:105560006500231AE5022310F502828083570502A5
:1055700065771307F7CFC207C183BD9BC207C183FD
:105580002310F502835705028356450003D8850092
:10559000C2071396060183568501C18393F7F7FD71
:1055A000758F83D605004182A206558F83D62500CC
:1055B00042074183B3E606019206D58FB736014014
:1055C000C207138806C0C183630E05019386064097
:1055D000630AD500B7560140138806C0630405016D
:1055E0006311D50483D6A50093F7F7F703D8C50058
:1055F0009206D58F83D64500C207C183920693F7E2
:10560000F7FBD58FFD769386F63FF18E03D6E50046
:10561000C207C183336606010A06D18E13960601BE
:1056200041822312C500231CE50003D76500231C1B
:10563000E5022310F50282808357050203D8850016
:10564000C207C18393F7F7EFC207C1832310F502A6
:1056500083570502835645000357C501C2071396B9
:105660000601420783D6050041831377C7F8558F9B
:1056700083D62500C18393F7F7DFB3E60601A206C0
:10568000D58FB7360140C207138806C04182C18357
:10569000630E050193860640630AD500B7560140A4
:1056A000138806C0630405016312D504FD76938652
:1056B000F67FF58F83D6A50003D8C500A206D58F47
:1056C00083D64500C207C183A20693F7F7BFD58FE3
:1056D000F576FD16F18E03D6E500C207C183336669
:1056E00006011206D18E1396060141822312C500CF
:1056F000231EE50003D76500231EE5022310F502F3
:10570000828003570502FD77FD17F98F2310F502FC
:1057100003580502835645008357C50165771396E4
:10572000060183D605001307F7CF7D8FF977A20610
:10573000FD17558FB3F7070183D6250003D88500E1
:1057400042074182B3E60601B206D58FB736014063
:10575000C207138806C04183C183630E0501938687
:105760000640630AD500B7560140138806C063049B
:105770000501631CD500F176FD16F18E03D6C50038
:105780001A06D18E1396060141822312C500231EEC
:10579000E50003D765002310E5042310F50282809D
:1057A0008357050091C593E717002310F500828009
:1057B000C207C183F99BC207C183C5BF8357450494
:1057C00091C52167D98F2312F5048280C607C5834E
:1057D000DDBF8357C50009C6DD8D2316B500828065
:1057E00093C5F5FFFD8DD5BF83578501C207C183E2
:1057F000DD9BDD8D231CB500828003578501FD777D
:105800009387F77FF98FA205CD8FC207C183231C31
:10581000F50082808357C501C207C183DD9BDD8D02
:10582000231EB50082800357C501FD779387F77F5C
:10583000F98FA205CD8FC207C183231EF500828098
:10584000835705029205C207C18393F7F7FDCD8FF9
:10585000C207C1832310F5028280035705028547E2
:10586000B397B70093C7F7FFF98F2310F50283575B
:105870000502B315B600DD8DC205C1812310B50246
:1058800082802312B5028280035505016D8D333568
:10589000A000828093C5F5FFC205C1812318B50021
:1058A0008280835705010355C500ED8F4205418174
:1058B00089C76D8D3335A00082800145828093C5F4
:1058C000F5FFC205C1812318B5008280835605010A
:1058D000F577FD17F58F83D66500397122DC06DE7A
:1058E000D58F03D7C5002318F5008356C500FD7773
:1058F0009387379FF58F83D645002A842EC6D58F90
:1059000083D68500D58F83D6A500D58F2316F500C5
:1059100083574501C207C18393F7F7CFD98F231A65
:10592000F5006808EFF0BF8EB74701409387078006
:10593000B245631EF404A2578356C4006547B3877B
:10594000E702C206C186984163D5060406070356DE
:10595000C4004206B3D7E702130740064186B3D618
:10596000E702B3F7E7029206635706028E079387B2
:105970002703B3D7E70213F77700B367D700C2074F
:10598000C1832314F400F250625421618280925743
:1059900065B70A076DBF920793872703B3D7E7025E
:1059A000BD8BD58FE9BF81C98357C5000967D98FE2
:1059B0002316F50082800357C500F977FD17F98F8C
:1059C000C5BF13F7F50F85471583B395B700631966
:1059D000F7009307C500984301CED98D8CC3828010
:1059E000894693074501E318D7FE93070501E5B7FC
:1059F00093C5F5FFF98DDDB793F5F51F2312B500BB
:105A00008280035505006D8D3335A000828013F729
:105A1000F50F85461583B397B6006313D702035776
:105A2000C500F98F0357050001454207418381CB2B
:105A30000545A181B315B5006D8F3335E000828037
:105A400089466315D70003570501E1BF0357450198
:105A5000C9BFA1818547B397B70093C7F7FFC207B6
:105A6000C1832310F5008280B7070050239AA70254
:105A700003C767031377C70F238BE7028280B7073B
:105A80000050239CA70203C7A7031377C70F238DDA
:105A9000E7028280814737B6002013F7F70F63646F
:105AA000A7006FF07FFC032706793E978346070027
:105AB000850793C6F6FF2300D704C5B7814737B6DD
:105AC000002013F7F70F6364A7006FF05FFB032755
:105AD000C66B3E9783460700850793C6F6FF2300F3
